{"abi":[{"type":"constructor","inputs":[],"stateMutability":"payable"},{"type":"function","name":"approve","inputs":[{"name":"to","type":"address","internalType":"address"},{"name":"tokenId","type":"uint256","internalType":"uint256"}],"outputs":[],"stateMutability":"nonpayable"},{"type":"function","name":"balanceOf","inputs":[{"name":"owner","type":"address","internalType":"address"}],"outputs":[{"name":"","type":"uint256","internalType":"uint256"}],"stateMutability":"view"},{"type":"function","name":"getApproved","inputs":[{"name":"tokenId","type":"uint256","internalType":"uint256"}],"outputs":[{"name":"","type":"address","internalType":"address"}],"stateMutability":"view"},{"type":"function","name":"isApprovedForAll","inputs":[{"name":"owner","type":"address","internalType":"address"},{"name":"operator","type":"address","internalType":"address"}],"outputs":[{"name":"","type":"bool","internalType":"bool"}],"stateMutability":"view"},{"type":"function","name":"isPublicMintEnabled","inputs":[],"outputs":[{"name":"","type":"bool","internalType":"bool"}],"stateMutability":"view"},{"type":"function","name":"maxPerWallet","inputs":[],"outputs":[{"name":"","type":"uint256","internalType":"uint256"}],"stateMutability":"view"},{"type":"function","name":"maxSupply","inputs":[],"outputs":[{"name":"","type":"uint256","internalType":"uint256"}],"stateMutability":"view"},{"type":"function","name":"mint","inputs":[{"name":"quantity_","type":"uint256","internalType":"uint256"}],"outputs":[],"stateMutability":"payable"},{"type":"function","name":"mintPrice","inputs":[],"outputs":[{"name":"","type":"uint256","internalType":"uint256"}],"stateMutability":"view"},{"type":"function","name":"name","inputs":[],"outputs":[{"name":"","type":"string","internalType":"string"}],"stateMutability":"view"},{"type":"function","name":"owner","inputs":[],"outputs":[{"name":"","type":"address","internalType":"address"}],"stateMutability":"view"},{"type":"function","name":"ownerOf","inputs":[{"name":"tokenId","type":"uint256","internalType":"uint256"}],"outputs":[{"name":"","type":"address","internalType":"address"}],"stateMutability":"view"},{"type":"function","name":"renounceOwnership","inputs":[],"outputs":[],"stateMutability":"nonpayable"},{"type":"function","name":"safeTransferFrom","inputs":[{"name":"from","type":"address","internalType":"address"},{"name":"to","type":"address","internalType":"address"},{"name":"tokenId","type":"uint256","internalType":"uint256"}],"outputs":[],"stateMutability":"nonpayable"},{"type":"function","name":"safeTransferFrom","inputs":[{"name":"from","type":"address","internalType":"address"},{"name":"to","type":"address","internalType":"address"},{"name":"tokenId","type":"uint256","internalType":"uint256"},{"name":"data","type":"bytes","internalType":"bytes"}],"outputs":[],"stateMutability":"nonpayable"},{"type":"function","name":"setApprovalForAll","inputs":[{"name":"operator","type":"address","internalType":"address"},{"name":"approved","type":"bool","internalType":"bool"}],"outputs":[],"stateMutability":"nonpayable"},{"type":"function","name":"setIsPublicMintEnabled","inputs":[{"name":"isPublicMintEnabled_","type":"bool","internalType":"bool"}],"outputs":[],"stateMutability":"nonpayable"},{"type":"function","name":"setWithdrawWallet","inputs":[{"name":"withdrawWallet_","type":"address","internalType":"address payable"}],"outputs":[],"stateMutability":"nonpayable"},{"type":"function","name":"setbaseTokenUri","inputs":[{"name":"baseTokenUri_","type":"string","internalType":"string"}],"outputs":[],"stateMutability":"nonpayable"},{"type":"function","name":"supportsInterface","inputs":[{"name":"interfaceId","type":"bytes4","internalType":"bytes4"}],"outputs":[{"name":"","type":"bool","internalType":"bool"}],"stateMutability":"view"},{"type":"function","name":"symbol","inputs":[],"outputs":[{"name":"","type":"string","internalType":"string"}],"stateMutability":"view"},{"type":"function","name":"tokenURI","inputs":[{"name":"tokenId","type":"uint256","internalType":"uint256"}],"outputs":[{"name":"","type":"string","internalType":"string"}],"stateMutability":"view"},{"type":"function","name":"totalSupply","inputs":[],"outputs":[{"name":"","type":"uint256","internalType":"uint256"}],"stateMutability":"view"},{"type":"function","name":"transferFrom","inputs":[{"name":"from","type":"address","internalType":"address"},{"name":"to","type":"address","internalType":"address"},{"name":"tokenId","type":"uint256","internalType":"uint256"}],"outputs":[],"stateMutability":"nonpayable"},{"type":"function","name":"transferOwnership","inputs":[{"name":"newOwner","type":"address","internalType":"address"}],"outputs":[],"stateMutability":"nonpayable"},{"type":"function","name":"walletMints","inputs":[{"name":"","type":"address","internalType":"address"}],"outputs":[{"name":"","type":"uint256","internalType":"uint256"}],"stateMutability":"view"},{"type":"function","name":"withdraw","inputs":[],"outputs":[],"stateMutability":"nonpayable"},{"type":"function","name":"withdrawWallet","inputs":[],"outputs":[{"name":"","type":"address","internalType":"address payable"}],"stateMutability":"view"},{"type":"event","name":"Approval","inputs":[{"name":"owner","type":"address","indexed":true,"internalType":"address"},{"name":"approved","type":"address","indexed":true,"internalType":"address"},{"name":"tokenId","type":"uint256","indexed":true,"internalType":"uint256"}],"anonymous":false},{"type":"event","name":"ApprovalForAll","inputs":[{"name":"owner","type":"address","indexed":true,"internalType":"address"},{"name":"operator","type":"address","indexed":true,"internalType":"address"},{"name":"approved","type":"bool","indexed":false,"internalType":"bool"}],"anonymous":false},{"type":"event","name":"OwnershipTransferred","inputs":[{"name":"previousOwner","type":"address","indexed":true,"internalType":"address"},{"name":"newOwner","type":"address","indexed":true,"internalType":"address"}],"anonymous":false},{"type":"event","name":"Transfer","inputs":[{"name":"from","type":"address","indexed":true,"internalType":"address"},{"name":"to","type":"address","indexed":true,"internalType":"address"},{"name":"tokenId","type":"uint256","indexed":true,"internalType":"uint256"}],"anonymous":false},{"type":"error","name":"ERC721IncorrectOwner","inputs":[{"name":"sender","type":"address","internalType":"address"},{"name":"tokenId","type":"uint256","internalType":"uint256"},{"name":"owner","type":"address","internalType":"address"}]},{"type":"error","name":"ERC721InsufficientApproval","inputs":[{"name":"operator","type":"address","internalType":"address"},{"name":"tokenId","type":"uint256","internalType":"uint256"}]},{"type":"error","name":"ERC721InvalidApprover","inputs":[{"name":"approver","type":"address","internalType":"address"}]},{"type":"error","name":"ERC721InvalidOperator","inputs":[{"name":"operator","type":"address","internalType":"address"}]},{"type":"error","name":"ERC721InvalidOwner","inputs":[{"name":"owner","type":"address","internalType":"address"}]},{"type":"error","name":"ERC721InvalidReceiver","inputs":[{"name":"receiver","type":"address","internalType":"address"}]},{"type":"error","name":"ERC721InvalidSender","inputs":[{"name":"sender","type":"address","internalType":"address"}]},{"type":"error","name":"ERC721NonexistentToken","inputs":[{"name":"tokenId","type":"uint256","internalType":"uint256"}]},{"type":"error","name":"OwnableInvalidOwner","inputs":[{"name":"owner","type":"address","internalType":"address"}]},{"type":"error","name":"OwnableUnauthorizedAccount","inputs":[{"name":"account","type":"address","internalType":"address"}]}],"bytecode":{"object":"0x6080604052336040518060400160405280600981526020017f526f626f50756e6b7300000000000000000000000000000000000000000000008152506040518060400160405280600281526020017f5250000000000000000000000000000000000000000000000000000000000000815250815f908161007f919061044e565b50806001908161008f919061044e565b5050505f73ffffffffffffffffffffffffffffffffffffffff168173ffffffffffffffffffffffffffffffffffffffff1603610102575f6040517f1e4fbdf70000000000000000000000000000000000000000000000000000000081526004016100f9919061055c565b60405180910390fd5b6101118161013d60201b60201c565b5066470de4df8200006007819055505f6008819055506103e86009819055506003600a81905550610575565b5f60065f9054906101000a900473ffffffffffffffffffffffffffffffffffffffff1690508160065f6101000a81548173ffffffffffffffffffffffffffffffffffffffff021916908373ffffffffffffffffffffffffffffffffffffffff1602179055508173ffffffffffffffffffffffffffffffffffffffff168173ffffffffffffffffffffffffffffffffffffffff167f8be0079c531659141344cd1fd0a4f28419497f9722a3daafe3b4186f6b6457e060405160405180910390a35050565b5f81519050919050565b7f4e487b71000000000000000000000000000000000000000000000000000000005f52604160045260245ffd5b7f4e487b71000000000000000000000000000000000000000000000000000000005f52602260045260245ffd5b5f600282049050600182168061027b57607f821691505b60208210810361028e5761028d610237565b5b50919050565b5f819050815f5260205f209050919050565b5f6020601f8301049050919050565b5f82821b905092915050565b5f600883026102f07fffffffffffffffffffffffffffffffffffffffffffffffffffffffffffffffff826102b5565b6102fa86836102b5565b95508019841693508086168417925050509392505050565b5f819050919050565b5f819050919050565b5f61033e61033961033484610312565b61031b565b610312565b9050919050565b5f819050919050565b61035783610324565b61036b61036382610345565b8484546102c1565b825550505050565b5f5f905090565b610382610373565b61038d81848461034e565b505050565b5f5b828110156103b3576103a85f82840161037a565b600181019050610394565b505050565b601f8211156104065782821115610405576103d281610294565b6103db836102a6565b6103e4856102a6565b60208610156103f1575f90505b80830161040082840382610392565b505050505b5b505050565b5f82821c905092915050565b5f6104265f198460080261040b565b1980831691505092915050565b5f61043e8383610417565b9150826002028217905092915050565b61045782610200565b67ffffffffffffffff8111156104705761046f61020a565b5b61047a8254610264565b6104858282856103b8565b5f60209050601f8311600181146104b6575f84156104a4578287015190505b6104ae8582610433565b865550610515565b601f1984166104c486610294565b5f5b828110156104eb578489015182556001820191506020850194506020810190506104c6565b868310156105085784890151610504601f891682610417565b8355505b6001600288020188555050505b505050505050565b5f73ffffffffffffffffffffffffffffffffffffffff82169050919050565b5f6105468261051d565b9050919050565b6105568161053c565b82525050565b5f60208201905061056f5f83018461054d565b92915050565b612f3b806105825f395ff3fe6080604052600436106101b6575f3560e01c806370a08231116100eb578063a22cb46511610089578063d5abeb0111610063578063d5abeb01146105be578063e985e9c5146105e8578063f0293fd314610624578063f2fde38b14610660576101b6565b8063a22cb46514610532578063b88d4fde1461055a578063c87b56dd14610582576101b6565b80638da5cb5b116100c55780638da5cb5b1461049a5780639373f432146104c457806395d89b41146104ec578063a0712d6814610516576101b6565b806370a082311461041e578063715018a61461045a57806385d178f414610470576101b6565b80632373ac221161015857806342842e0e1161013257806342842e0e14610366578063453c23101461038e5780636352211e146103b85780636817c76c146103f4576101b6565b80632373ac221461030057806323b872dd146103285780633ccfd60b14610350576101b6565b8063081812fc11610194578063081812fc1461024a5780630943d07414610286578063095ea7b3146102ae57806318160ddd146102d6576101b6565b80630116bc2d146101ba57806301ffc9a7146101e457806306fdde0314610220575b5f5ffd5b3480156101c5575f5ffd5b506101ce610688565b6040516101db9190611f43565b60405180910390f35b3480156101ef575f5ffd5b5061020a60048036038101906102059190611fc2565b61069a565b6040516102179190611f43565b60405180910390f35b34801561022b575f5ffd5b5061023461077b565b604051610241919061205d565b60405180910390f35b348015610255575f5ffd5b50610270600480360381019061026b91906120b0565b61080a565b60405161027d919061211a565b60405180910390f35b348015610291575f5ffd5b506102ac60048036038101906102a79190612194565b610825565b005b3480156102b9575f5ffd5b506102d460048036038101906102cf9190612209565b610843565b005b3480156102e1575f5ffd5b506102ea610859565b6040516102f79190612256565b60405180910390f35b34801561030b575f5ffd5b5061032660048036038101906103219190612299565b61085f565b005b348015610333575f5ffd5b5061034e600480360381019061034991906122c4565b610883565b005b34801561035b575f5ffd5b50610364610982565b005b348015610371575f5ffd5b5061038c600480360381019061038791906122c4565b610a56565b005b348015610399575f5ffd5b506103a2610a75565b6040516103af9190612256565b60405180910390f35b3480156103c3575f5ffd5b506103de60048036038101906103d991906120b0565b610a7b565b6040516103eb919061211a565b60405180910390f35b3480156103ff575f5ffd5b50610408610a8c565b6040516104159190612256565b60405180910390f35b348015610429575f5ffd5b50610444600480360381019061043f9190612314565b610a92565b6040516104519190612256565b60405180910390f35b348015610465575f5ffd5b5061046e610b48565b005b34801561047b575f5ffd5b50610484610b5b565b604051610491919061235f565b60405180910390f35b3480156104a5575f5ffd5b506104ae610b80565b6040516104bb919061211a565b60405180910390f35b3480156104cf575f5ffd5b506104ea60048036038101906104e591906123a2565b610ba8565b005b3480156104f7575f5ffd5b50610500610bf3565b60405161050d919061205d565b60405180910390f35b610530600480360381019061052b91906120b0565b610c83565b005b34801561053d575f5ffd5b50610558600480360381019061055391906123cd565b610ea3565b005b348015610565575f5ffd5b50610580600480360381019061057b9190612533565b610eb9565b005b34801561058d575f5ffd5b506105a860048036038101906105a391906120b0565b610ede565b6040516105b5919061205d565b60405180910390f35b3480156105c9575f5ffd5b506105d2610f88565b6040516105df9190612256565b60405180910390f35b3480156105f3575f5ffd5b5061060e600480360381019061060991906125b3565b610f8e565b60405161061b9190611f43565b60405180910390f35b34801561062f575f5ffd5b5061064a60048036038101906106459190612314565b61101c565b6040516106579190612256565b60405180910390f35b34801561066b575f5ffd5b5061068660048036038101906106819190612314565b611031565b005b600b5f9054906101000a900460ff1681565b5f7f80ac58cd000000000000000000000000000000000000000000000000000000007bffffffffffffffffffffffffffffffffffffffffffffffffffffffff1916827bffffffffffffffffffffffffffffffffffffffffffffffffffffffff1916148061076457507f5b5e139f000000000000000000000000000000000000000000000000000000007bffffffffffffffffffffffffffffffffffffffffffffffffffffffff1916827bffffffffffffffffffffffffffffffffffffffffffffffffffffffff1916145b806107745750610773826110b5565b5b9050919050565b60605f80546107899061261e565b80601f01602080910402602001604051908101604052809291908181526020018280546107b59061261e565b80156108005780601f106107d757610100808354040283529160200191610800565b820191905f5260205f20905b8154815290600101906020018083116107e357829003601f168201915b5050505050905090565b5f6108148261111e565b5061081e826111a4565b9050919050565b61082d6111dd565b8181600c918261083e929190612809565b505050565b6108558282610850611264565b61126b565b5050565b60085481565b6108676111dd565b80600b5f6101000a81548160ff02191690831515021790555050565b5f73ffffffffffffffffffffffffffffffffffffffff168273ffffffffffffffffffffffffffffffffffffffff16036108f3575f6040517f64a0ae920000000000000000000000000000000000000000000000000000000081526004016108ea919061211a565b60405180910390fd5b5f6109068383610901611264565b61127d565b90508373ffffffffffffffffffffffffffffffffffffffff168173ffffffffffffffffffffffffffffffffffffffff161461097c578382826040517f64283d7b000000000000000000000000000000000000000000000000000000008152600401610973939291906128d6565b60405180910390fd5b50505050565b61098a6111dd565b5f600d5f9054906101000a900473ffffffffffffffffffffffffffffffffffffffff1673ffffffffffffffffffffffffffffffffffffffff16476040516109d090612938565b5f6040518083038185875af1925050503d805f8114610a0a576040519150601f19603f3d011682016040523d82523d5f602084013e610a0f565b606091505b5050905080610a53576040517f08c379a0000000000000000000000000000000000000000000000000000000008152600401610a4a90612996565b60405180910390fd5b50565b610a7083838360405180602001604052805f815250610eb9565b505050565b600a5481565b5f610a858261111e565b9050919050565b60075481565b5f5f73ffffffffffffffffffffffffffffffffffffffff168273ffffffffffffffffffffffffffffffffffffffff1603610b03575f6040517f89c62b64000000000000000000000000000000000000000000000000000000008152600401610afa919061211a565b60405180910390fd5b60035f8373ffffffffffffffffffffffffffffffffffffffff1673ffffffffffffffffffffffffffffffffffffffff1681526020019081526020015f20549050919050565b610b506111dd565b610b595f611488565b565b600d5f9054906101000a900473ffffffffffffffffffffffffffffffffffffffff1681565b5f60065f9054906101000a900473ffffffffffffffffffffffffffffffffffffffff16905090565b610bb06111dd565b80600d5f6101000a81548173ffffffffffffffffffffffffffffffffffffffff021916908373ffffffffffffffffffffffffffffffffffffffff16021790555050565b606060018054610c029061261e565b80601f0160208091040260200160405190810160405280929190818152602001828054610c2e9061261e565b8015610c795780601f10610c5057610100808354040283529160200191610c79565b820191905f5260205f20905b815481529060010190602001808311610c5c57829003601f168201915b5050505050905090565b600b5f9054906101000a900460ff16610cd1576040517f08c379a0000000000000000000000000000000000000000000000000000000008152600401610cc8906129fe565b60405180910390fd5b60075481610cdf9190612a49565b3414610d20576040517f08c379a0000000000000000000000000000000000000000000000000000000008152600401610d1790612ad4565b60405180910390fd5b60095481600854610d319190612af2565b1115610d72576040517f08c379a0000000000000000000000000000000000000000000000000000000008152600401610d6990612b6f565b60405180910390fd5b600a5481600e5f3373ffffffffffffffffffffffffffffffffffffffff1673ffffffffffffffffffffffffffffffffffffffff1681526020019081526020015f2054610dbe9190612af2565b1115610dff576040517f08c379a0000000000000000000000000000000000000000000000000000000008152600401610df690612bd7565b60405180910390fd5b5f5f90505b81811015610e9f575f6001600854610e1c9190612af2565b905060085f815480929190610e3090612bf5565b9190505550610e3f338261154b565b600e5f3373ffffffffffffffffffffffffffffffffffffffff1673ffffffffffffffffffffffffffffffffffffffff1681526020019081526020015f205f815480929190610e8c90612bf5565b9190505550508080600101915050610e04565b5050565b610eb5610eae611264565b8383611568565b5050565b610ec4848484610883565b610ed8610ecf611264565b858585856116d1565b50505050565b60605f73ffffffffffffffffffffffffffffffffffffffff16610f008361187d565b73ffffffffffffffffffffffffffffffffffffffff1603610f56576040517f08c379a0000000000000000000000000000000000000000000000000000000008152600401610f4d90612c86565b60405180910390fd5b600c610f61836118b6565b604051602001610f72929190612da8565b6040516020818303038152906040529050919050565b60095481565b5f60055f8473ffffffffffffffffffffffffffffffffffffffff1673ffffffffffffffffffffffffffffffffffffffff1681526020019081526020015f205f8373ffffffffffffffffffffffffffffffffffffffff1673ffffffffffffffffffffffffffffffffffffffff1681526020019081526020015f205f9054906101000a900460ff16905092915050565b600e602052805f5260405f205f915090505481565b6110396111dd565b5f73ffffffffffffffffffffffffffffffffffffffff168173ffffffffffffffffffffffffffffffffffffffff16036110a9575f6040517f1e4fbdf70000000000000000000000000000000000000000000000000000000081526004016110a0919061211a565b60405180910390fd5b6110b281611488565b50565b5f7f01ffc9a7000000000000000000000000000000000000000000000000000000007bffffffffffffffffffffffffffffffffffffffffffffffffffffffff1916827bffffffffffffffffffffffffffffffffffffffffffffffffffffffff1916149050919050565b5f5f6111298361187d565b90505f73ffffffffffffffffffffffffffffffffffffffff168173ffffffffffffffffffffffffffffffffffffffff160361119b57826040517f7e2732890000000000000000000000000000000000000000000000000000000081526004016111929190612256565b60405180910390fd5b80915050919050565b5f60045f8381526020019081526020015f205f9054906101000a900473ffffffffffffffffffffffffffffffffffffffff169050919050565b6111e5611264565b73ffffffffffffffffffffffffffffffffffffffff16611203610b80565b73ffffffffffffffffffffffffffffffffffffffff161461126257611226611264565b6040517f118cdaa7000000000000000000000000000000000000000000000000000000008152600401611259919061211a565b60405180910390fd5b565b5f33905090565b6112788383836001611980565b505050565b5f5f6112888461187d565b90505f73ffffffffffffffffffffffffffffffffffffffff168373ffffffffffffffffffffffffffffffffffffffff16146112c9576112c8818486611b3f565b5b5f73ffffffffffffffffffffffffffffffffffffffff168173ffffffffffffffffffffffffffffffffffffffff1614611354576113085f855f5f611980565b600160035f8373ffffffffffffffffffffffffffffffffffffffff1673ffffffffffffffffffffffffffffffffffffffff1681526020019081526020015f205f82825403925050819055505b5f73ffffffffffffffffffffffffffffffffffffffff168573ffffffffffffffffffffffffffffffffffffffff16146113d357600160035f8773ffffffffffffffffffffffffffffffffffffffff1673ffffffffffffffffffffffffffffffffffffffff1681526020019081526020015f205f82825401925050819055505b8460025f8681526020019081526020015f205f6101000a81548173ffffffffffffffffffffffffffffffffffffffff021916908373ffffffffffffffffffffffffffffffffffffffff160217905550838573ffffffffffffffffffffffffffffffffffffffff168273ffffffffffffffffffffffffffffffffffffffff167fddf252ad1be2c89b69c2b068fc378daa952ba7f163c4a11628f55a4df523b3ef60405160405180910390a4809150509392505050565b5f60065f9054906101000a900473ffffffffffffffffffffffffffffffffffffffff1690508160065f6101000a81548173ffffffffffffffffffffffffffffffffffffffff021916908373ffffffffffffffffffffffffffffffffffffffff1602179055508173ffffffffffffffffffffffffffffffffffffffff168173ffffffffffffffffffffffffffffffffffffffff167f8be0079c531659141344cd1fd0a4f28419497f9722a3daafe3b4186f6b6457e060405160405180910390a35050565b611564828260405180602001604052805f815250611c02565b5050565b5f73ffffffffffffffffffffffffffffffffffffffff168273ffffffffffffffffffffffffffffffffffffffff16036115d857816040517f5b08ba180000000000000000000000000000000000000000000000000000000081526004016115cf919061211a565b60405180910390fd5b8060055f8573ffffffffffffffffffffffffffffffffffffffff1673ffffffffffffffffffffffffffffffffffffffff1681526020019081526020015f205f8473ffffffffffffffffffffffffffffffffffffffff1673ffffffffffffffffffffffffffffffffffffffff1681526020019081526020015f205f6101000a81548160ff0219169083151502179055508173ffffffffffffffffffffffffffffffffffffffff168373ffffffffffffffffffffffffffffffffffffffff167f17307eab39ab6107e8899845ad3d59bd9653f200f220920489ca2b5937696c31836040516116c49190611f43565b60405180910390a3505050565b5f8373ffffffffffffffffffffffffffffffffffffffff163b1115611876578273ffffffffffffffffffffffffffffffffffffffff1663150b7a02868685856040518563ffffffff1660e01b815260040161172f9493929190612e28565b6020604051808303815f875af192505050801561176a57506040513d601f19601f820116820180604052508101906117679190612e86565b60015b6117eb573d805f8114611798576040519150601f19603f3d011682016040523d82523d5f602084013e61179d565b606091505b505f8151036117e357836040517f64a0ae920000000000000000000000000000000000000000000000000000000081526004016117da919061211a565b60405180910390fd5b805160208201fd5b63150b7a0260e01b7bffffffffffffffffffffffffffffffffffffffffffffffffffffffff1916817bffffffffffffffffffffffffffffffffffffffffffffffffffffffff19161461187457836040517f64a0ae9200000000000000000000000000000000000000000000000000000000815260040161186b919061211a565b60405180910390fd5b505b5050505050565b5f60025f8381526020019081526020015f205f9054906101000a900473ffffffffffffffffffffffffffffffffffffffff169050919050565b60605f60016118c484611c25565b0190505f8167ffffffffffffffff8111156118e2576118e161240f565b5b6040519080825280601f01601f1916602001820160405280156119145781602001600182028036833780820191505090505b5090505f82602083010190505b600115611975578080600190039150507f3031323334353637383961626364656600000000000000000000000000000000600a86061a8153600a858161196a57611969612eb1565b5b0494505f8503611921575b819350505050919050565b80806119b857505f73ffffffffffffffffffffffffffffffffffffffff168273ffffffffffffffffffffffffffffffffffffffff1614155b15611aea575f6119c78461111e565b90505f73ffffffffffffffffffffffffffffffffffffffff168373ffffffffffffffffffffffffffffffffffffffff1614158015611a3157508273ffffffffffffffffffffffffffffffffffffffff168173ffffffffffffffffffffffffffffffffffffffff1614155b8015611a445750611a428184610f8e565b155b15611a8657826040517fa9fbf51f000000000000000000000000000000000000000000000000000000008152600401611a7d919061211a565b60405180910390fd5b8115611ae857838573ffffffffffffffffffffffffffffffffffffffff168273ffffffffffffffffffffffffffffffffffffffff167f8c5be1e5ebec7d5bd14f71427d1e84f3dd0314c0f7b2291e5b200ac8c7c3b92560405160405180910390a45b505b8360045f8581526020019081526020015f205f6101000a81548173ffffffffffffffffffffffffffffffffffffffff021916908373ffffffffffffffffffffffffffffffffffffffff16021790555050505050565b611b4a838383611d76565b611bfd575f73ffffffffffffffffffffffffffffffffffffffff168373ffffffffffffffffffffffffffffffffffffffff1603611bbe57806040517f7e273289000000000000000000000000000000000000000000000000000000008152600401611bb59190612256565b60405180910390fd5b81816040517f177e802f000000000000000000000000000000000000000000000000000000008152600401611bf4929190612ede565b60405180910390fd5b505050565b611c0c8383611e36565b611c20611c17611264565b5f8585856116d1565b505050565b5f5f5f90507a184f03e93ff9f4daa797ed6e38ed64bf6a1f0100000000000000008310611c81577a184f03e93ff9f4daa797ed6e38ed64bf6a1f0100000000000000008381611c7757611c76612eb1565b5b0492506040810190505b6d04ee2d6d415b85acef81000000008310611cbe576d04ee2d6d415b85acef81000000008381611cb457611cb3612eb1565b5b0492506020810190505b662386f26fc100008310611ced57662386f26fc100008381611ce357611ce2612eb1565b5b0492506010810190505b6305f5e1008310611d16576305f5e1008381611d0c57611d0b612eb1565b5b0492506008810190505b6127108310611d3b576127108381611d3157611d30612eb1565b5b0492506004810190505b60648310611d5e5760648381611d5457611d53612eb1565b5b0492506002810190505b600a8310611d6d576001810190505b80915050919050565b5f5f73ffffffffffffffffffffffffffffffffffffffff168373ffffffffffffffffffffffffffffffffffffffff1614158015611e2d57508273ffffffffffffffffffffffffffffffffffffffff168473ffffffffffffffffffffffffffffffffffffffff161480611dee5750611ded8484610f8e565b5b80611e2c57508273ffffffffffffffffffffffffffffffffffffffff16611e14836111a4565b73ffffffffffffffffffffffffffffffffffffffff16145b5b90509392505050565b5f73ffffffffffffffffffffffffffffffffffffffff168273ffffffffffffffffffffffffffffffffffffffff1603611ea6575f6040517f64a0ae92000000000000000000000000000000000000000000000000000000008152600401611e9d919061211a565b60405180910390fd5b5f611eb283835f61127d565b90505f73ffffffffffffffffffffffffffffffffffffffff168173ffffffffffffffffffffffffffffffffffffffff1614611f24575f6040517f73c6ac6e000000000000000000000000000000000000000000000000000000008152600401611f1b919061211a565b60405180910390fd5b505050565b5f8115159050919050565b611f3d81611f29565b82525050565b5f602082019050611f565f830184611f34565b92915050565b5f604051905090565b5f5ffd5b5f5ffd5b5f7fffffffff0000000000000000000000000000000000000000000000000000000082169050919050565b611fa181611f6d565b8114611fab575f5ffd5b50565b5f81359050611fbc81611f98565b92915050565b5f60208284031215611fd757611fd6611f65565b5b5f611fe484828501611fae565b91505092915050565b5f81519050919050565b5f82825260208201905092915050565b8281835e5f83830152505050565b5f601f19601f8301169050919050565b5f61202f82611fed565b6120398185611ff7565b9350612049818560208601612007565b61205281612015565b840191505092915050565b5f6020820190508181035f8301526120758184612025565b905092915050565b5f819050919050565b61208f8161207d565b8114612099575f5ffd5b50565b5f813590506120aa81612086565b92915050565b5f602082840312156120c5576120c4611f65565b5b5f6120d28482850161209c565b91505092915050565b5f73ffffffffffffffffffffffffffffffffffffffff82169050919050565b5f612104826120db565b9050919050565b612114816120fa565b82525050565b5f60208201905061212d5f83018461210b565b92915050565b5f5ffd5b5f5ffd5b5f5ffd5b5f5f83601f84011261215457612153612133565b5b8235905067ffffffffffffffff81111561217157612170612137565b5b60208301915083600182028301111561218d5761218c61213b565b5b9250929050565b5f5f602083850312156121aa576121a9611f65565b5b5f83013567ffffffffffffffff8111156121c7576121c6611f69565b5b6121d38582860161213f565b92509250509250929050565b6121e8816120fa565b81146121f2575f5ffd5b50565b5f81359050612203816121df565b92915050565b5f5f6040838503121561221f5761221e611f65565b5b5f61222c858286016121f5565b925050602061223d8582860161209c565b9150509250929050565b6122508161207d565b82525050565b5f6020820190506122695f830184612247565b92915050565b61227881611f29565b8114612282575f5ffd5b50565b5f813590506122938161226f565b92915050565b5f602082840312156122ae576122ad611f65565b5b5f6122bb84828501612285565b91505092915050565b5f5f5f606084860312156122db576122da611f65565b5b5f6122e8868287016121f5565b93505060206122f9868287016121f5565b925050604061230a8682870161209c565b9150509250925092565b5f6020828403121561232957612328611f65565b5b5f612336848285016121f5565b91505092915050565b5f612349826120db565b9050919050565b6123598161233f565b82525050565b5f6020820190506123725f830184612350565b92915050565b6123818161233f565b811461238b575f5ffd5b50565b5f8135905061239c81612378565b92915050565b5f602082840312156123b7576123b6611f65565b5b5f6123c48482850161238e565b91505092915050565b5f5f604083850312156123e3576123e2611f65565b5b5f6123f0858286016121f5565b925050602061240185828601612285565b9150509250929050565b5f5ffd5b7f4e487b71000000000000000000000000000000000000000000000000000000005f52604160045260245ffd5b61244582612015565b810181811067ffffffffffffffff821117156124645761246361240f565b5b80604052505050565b5f612476611f5c565b9050612482828261243c565b919050565b5f67ffffffffffffffff8211156124a1576124a061240f565b5b6124aa82612015565b9050602081019050919050565b828183375f83830152505050565b5f6124d76124d284612487565b61246d565b9050828152602081018484840111156124f3576124f261240b565b5b6124fe8482856124b7565b509392505050565b5f82601f83011261251a57612519612133565b5b813561252a8482602086016124c5565b91505092915050565b5f5f5f5f6080858703121561254b5761254a611f65565b5b5f612558878288016121f5565b9450506020612569878288016121f5565b935050604061257a8782880161209c565b925050606085013567ffffffffffffffff81111561259b5761259a611f69565b5b6125a787828801612506565b91505092959194509250565b5f5f604083850312156125c9576125c8611f65565b5b5f6125d6858286016121f5565b92505060206125e7858286016121f5565b9150509250929050565b7f4e487b71000000000000000000000000000000000000000000000000000000005f52602260045260245ffd5b5f600282049050600182168061263557607f821691505b602082108103612648576126476125f1565b5b50919050565b5f82905092915050565b5f819050815f5260205f209050919050565b5f6020601f8301049050919050565b5f82821b905092915050565b5f600883026126b47fffffffffffffffffffffffffffffffffffffffffffffffffffffffffffffffff82612679565b6126be8683612679565b95508019841693508086168417925050509392505050565b5f819050919050565b5f6126f96126f46126ef8461207d565b6126d6565b61207d565b9050919050565b5f819050919050565b612712836126df565b61272661271e82612700565b848454612685565b825550505050565b5f5f905090565b61273d61272e565b612748818484612709565b505050565b5f5b8281101561276e576127635f828401612735565b60018101905061274f565b505050565b601f8211156127c157828211156127c05761278d81612658565b6127968361266a565b61279f8561266a565b60208610156127ac575f90505b8083016127bb8284038261274d565b505050505b5b505050565b5f82821c905092915050565b5f6127e15f19846008026127c6565b1980831691505092915050565b5f6127f983836127d2565b9150826002028217905092915050565b612813838361264e565b67ffffffffffffffff81111561282c5761282b61240f565b5b612836825461261e565b612841828285612773565b5f601f83116001811461286e575f841561285c578287013590505b61286685826127ee565b8655506128cd565b601f19841661287c86612658565b5f5b828110156128a35784890135825560018201915060208501945060208101905061287e565b868310156128c057848901356128bc601f8916826127d2565b8355505b6001600288020188555050505b50505050505050565b5f6060820190506128e95f83018661210b565b6128f66020830185612247565b612903604083018461210b565b949350505050565b5f81905092915050565b50565b5f6129235f8361290b565b915061292e82612915565b5f82019050919050565b5f61294282612918565b9150819050919050565b7f5769746864726177616c206661696c65640000000000000000000000000000005f82015250565b5f612980601183611ff7565b915061298b8261294c565b602082019050919050565b5f6020820190508181035f8301526129ad81612974565b9050919050565b7f4d696e74696e67206973206e6f7420656e61626c6564000000000000000000005f82015250565b5f6129e8601683611ff7565b91506129f3826129b4565b602082019050919050565b5f6020820190508181035f830152612a15816129dc565b9050919050565b7f4e487b71000000000000000000000000000000000000000000000000000000005f52601160045260245ffd5b5f612a538261207d565b9150612a5e8361207d565b9250828202612a6c8161207d565b91508282048414831517612a8357612a82612a1c565b5b5092915050565b7f57726f6e67206d696e742076616c7565000000000000000000000000000000005f82015250565b5f612abe601083611ff7565b9150612ac982612a8a565b602082019050919050565b5f6020820190508181035f830152612aeb81612ab2565b9050919050565b5f612afc8261207d565b9150612b078361207d565b9250828201905080821115612b1f57612b1e612a1c565b5b92915050565b7f45786365656473206d617820737570706c7900000000000000000000000000005f82015250565b5f612b59601283611ff7565b9150612b6482612b25565b602082019050919050565b5f6020820190508181035f830152612b8681612b4d565b9050919050565b7f45786365656473206d6178207065722077616c6c6574000000000000000000005f82015250565b5f612bc1601683611ff7565b9150612bcc82612b8d565b602082019050919050565b5f6020820190508181035f830152612bee81612bb5565b9050919050565b5f612bff8261207d565b91507fffffffffffffffffffffffffffffffffffffffffffffffffffffffffffffffff8203612c3157612c30612a1c565b5b600182019050919050565b7f546f6b656e20646f6573206e6f742065786973742100000000000000000000005f82015250565b5f612c70601583611ff7565b9150612c7b82612c3c565b602082019050919050565b5f6020820190508181035f830152612c9d81612c64565b9050919050565b5f81905092915050565b5f8154612cba8161261e565b612cc48186612ca4565b9450600182165f8114612cde5760018114612cf357612d25565b60ff1983168652811515820286019350612d25565b612cfc85612658565b5f5b83811015612d1d57815481890152600182019150602081019050612cfe565b838801955050505b50505092915050565b5f612d3882611fed565b612d428185612ca4565b9350612d52818560208601612007565b80840191505092915050565b7f2e6a736f6e0000000000000000000000000000000000000000000000000000005f82015250565b5f612d92600583612ca4565b9150612d9d82612d5e565b600582019050919050565b5f612db38285612cae565b9150612dbf8284612d2e565b9150612dca82612d86565b91508190509392505050565b5f81519050919050565b5f82825260208201905092915050565b5f612dfa82612dd6565b612e048185612de0565b9350612e14818560208601612007565b612e1d81612015565b840191505092915050565b5f608082019050612e3b5f83018761210b565b612e48602083018661210b565b612e556040830185612247565b8181036060830152612e678184612df0565b905095945050505050565b5f81519050612e8081611f98565b92915050565b5f60208284031215612e9b57612e9a611f65565b5b5f612ea884828501612e72565b91505092915050565b7f4e487b71000000000000000000000000000000000000000000000000000000005f52601260045260245ffd5b5f604082019050612ef15f83018561210b565b612efe6020830184612247565b939250505056fea2646970667358221220f32aa009c7d2f03ef3d4ede165b347a831a63c36868361ce60f5d6c4fa44fd6564736f6c63430008210033","linkReferences":{}},"methodIdentifiers":{"approve(address,uint256)":"095ea7b3","balanceOf(address)":"70a08231","getApproved(uint256)":"081812fc","isApprovedForAll(address,address)":"e985e9c5","isPublicMintEnabled()":"0116bc2d","maxPerWallet()":"453c2310","maxSupply()":"d5abeb01","mint(uint256)":"a0712d68","mintPrice()":"6817c76c","name()":"06fdde03","owner()":"8da5cb5b","ownerOf(uint256)":"6352211e","renounceOwnership()":"715018a6","safeTransferFrom(address,address,uint256)":"42842e0e","safeTransferFrom(address,address,uint256,bytes)":"b88d4fde","setApprovalForAll(address,bool)":"a22cb465","setIsPublicMintEnabled(bool)":"2373ac22","setWithdrawWallet(address)":"9373f432","setbaseTokenUri(string)":"0943d074","supportsInterface(bytes4)":"01ffc9a7","symbol()":"95d89b41","tokenURI(uint256)":"c87b56dd","totalSupply()":"18160ddd","transferFrom(address,address,uint256)":"23b872dd","transferOwnership(address)":"f2fde38b","walletMints(address)":"f0293fd3","withdraw()":"3ccfd60b","withdrawWallet()":"85d178f4"},"id":37}